{
  "_format": "hh-sol-artifact-1",
  "contractName": "ArtToken",
  "sourceName": "contracts/ArtToken.sol",
  "abi": [
    {
      "inputs": [
        {
          "internalType": "uint256",
          "name": "cap",
          "type": "uint256"
        },
        {
          "internalType": "uint256",
          "name": "reward",
          "type": "uint256"
        }
      ],
      "stateMutability": "nonpayable",
      "type": "constructor"
    },
    {
      "anonymous": false,
      "inputs": [
        {
          "indexed": true,
          "internalType": "address",
          "name": "owner",
          "type": "address"
        },
        {
          "indexed": true,
          "internalType": "address",
          "name": "spender",
          "type": "address"
        },
        {
          "indexed": false,
          "internalType": "uint256",
          "name": "value",
          "type": "uint256"
        }
      ],
      "name": "Approval",
      "type": "event"
    },
    {
      "anonymous": false,
      "inputs": [
        {
          "indexed": true,
          "internalType": "address",
          "name": "from",
          "type": "address"
        },
        {
          "indexed": true,
          "internalType": "address",
          "name": "to",
          "type": "address"
        },
        {
          "indexed": false,
          "internalType": "uint256",
          "name": "value",
          "type": "uint256"
        }
      ],
      "name": "Transfer",
      "type": "event"
    },
    {
      "inputs": [
        {
          "internalType": "address",
          "name": "owner",
          "type": "address"
        },
        {
          "internalType": "address",
          "name": "spender",
          "type": "address"
        }
      ],
      "name": "allowance",
      "outputs": [
        {
          "internalType": "uint256",
          "name": "",
          "type": "uint256"
        }
      ],
      "stateMutability": "view",
      "type": "function"
    },
    {
      "inputs": [
        {
          "internalType": "address",
          "name": "spender",
          "type": "address"
        },
        {
          "internalType": "uint256",
          "name": "amount",
          "type": "uint256"
        }
      ],
      "name": "approve",
      "outputs": [
        {
          "internalType": "bool",
          "name": "",
          "type": "bool"
        }
      ],
      "stateMutability": "nonpayable",
      "type": "function"
    },
    {
      "inputs": [
        {
          "internalType": "address",
          "name": "account",
          "type": "address"
        }
      ],
      "name": "balanceOf",
      "outputs": [
        {
          "internalType": "uint256",
          "name": "",
          "type": "uint256"
        }
      ],
      "stateMutability": "view",
      "type": "function"
    },
    {
      "inputs": [],
      "name": "blockReward",
      "outputs": [
        {
          "internalType": "uint256",
          "name": "",
          "type": "uint256"
        }
      ],
      "stateMutability": "view",
      "type": "function"
    },
    {
      "inputs": [
        {
          "internalType": "uint256",
          "name": "amount",
          "type": "uint256"
        }
      ],
      "name": "burn",
      "outputs": [],
      "stateMutability": "nonpayable",
      "type": "function"
    },
    {
      "inputs": [
        {
          "internalType": "address",
          "name": "account",
          "type": "address"
        },
        {
          "internalType": "uint256",
          "name": "amount",
          "type": "uint256"
        }
      ],
      "name": "burnFrom",
      "outputs": [],
      "stateMutability": "nonpayable",
      "type": "function"
    },
    {
      "inputs": [],
      "name": "cap",
      "outputs": [
        {
          "internalType": "uint256",
          "name": "",
          "type": "uint256"
        }
      ],
      "stateMutability": "view",
      "type": "function"
    },
    {
      "inputs": [],
      "name": "decimals",
      "outputs": [
        {
          "internalType": "uint8",
          "name": "",
          "type": "uint8"
        }
      ],
      "stateMutability": "view",
      "type": "function"
    },
    {
      "inputs": [
        {
          "internalType": "address",
          "name": "spender",
          "type": "address"
        },
        {
          "internalType": "uint256",
          "name": "subtractedValue",
          "type": "uint256"
        }
      ],
      "name": "decreaseAllowance",
      "outputs": [
        {
          "internalType": "bool",
          "name": "",
          "type": "bool"
        }
      ],
      "stateMutability": "nonpayable",
      "type": "function"
    },
    {
      "inputs": [],
      "name": "destroy",
      "outputs": [],
      "stateMutability": "nonpayable",
      "type": "function"
    },
    {
      "inputs": [
        {
          "internalType": "address",
          "name": "spender",
          "type": "address"
        },
        {
          "internalType": "uint256",
          "name": "addedValue",
          "type": "uint256"
        }
      ],
      "name": "increaseAllowance",
      "outputs": [
        {
          "internalType": "bool",
          "name": "",
          "type": "bool"
        }
      ],
      "stateMutability": "nonpayable",
      "type": "function"
    },
    {
      "inputs": [],
      "name": "name",
      "outputs": [
        {
          "internalType": "string",
          "name": "",
          "type": "string"
        }
      ],
      "stateMutability": "view",
      "type": "function"
    },
    {
      "inputs": [],
      "name": "owner",
      "outputs": [
        {
          "internalType": "address payable",
          "name": "",
          "type": "address"
        }
      ],
      "stateMutability": "view",
      "type": "function"
    },
    {
      "inputs": [
        {
          "internalType": "uint256",
          "name": "reward",
          "type": "uint256"
        }
      ],
      "name": "setBlockReward",
      "outputs": [],
      "stateMutability": "nonpayable",
      "type": "function"
    },
    {
      "inputs": [],
      "name": "symbol",
      "outputs": [
        {
          "internalType": "string",
          "name": "",
          "type": "string"
        }
      ],
      "stateMutability": "view",
      "type": "function"
    },
    {
      "inputs": [],
      "name": "totalSupply",
      "outputs": [
        {
          "internalType": "uint256",
          "name": "",
          "type": "uint256"
        }
      ],
      "stateMutability": "view",
      "type": "function"
    },
    {
      "inputs": [
        {
          "internalType": "address",
          "name": "to",
          "type": "address"
        },
        {
          "internalType": "uint256",
          "name": "amount",
          "type": "uint256"
        }
      ],
      "name": "transfer",
      "outputs": [
        {
          "internalType": "bool",
          "name": "",
          "type": "bool"
        }
      ],
      "stateMutability": "nonpayable",
      "type": "function"
    },
    {
      "inputs": [
        {
          "internalType": "address",
          "name": "from",
          "type": "address"
        },
        {
          "internalType": "address",
          "name": "to",
          "type": "address"
        },
        {
          "internalType": "uint256",
          "name": "amount",
          "type": "uint256"
        }
      ],
      "name": "transferFrom",
      "outputs": [
        {
          "internalType": "bool",
          "name": "",
          "type": "bool"
        }
      ],
      "stateMutability": "nonpayable",
      "type": "function"
    }
  ],
  "bytecode": "0x60a06040523480156200001157600080fd5b5060405162002d5438038062002d5483398181016040528101906200003791906200064d565b620000476200021f60201b60201c565b600a62000055919062000824565b8262000062919062000875565b6040518060400160405280600881526020017f417274546f6b656e0000000000000000000000000000000000000000000000008152506040518060400160405280600381526020017f41525400000000000000000000000000000000000000000000000000000000008152508160039081620000df919062000b30565b508060049081620000f1919062000b30565b505050600081116200013a576040517f08c379a0000000000000000000000000000000000000000000000000000000008152600401620001319062000c78565b60405180910390fd5b80608081815250505033600560006101000a81548173ffffffffffffffffffffffffffffffffffffffff021916908373ffffffffffffffffffffffffffffffffffffffff160217905550620001e6600560009054906101000a900473ffffffffffffffffffffffffffffffffffffffff16620001bb6200021f60201b60201c565b600a620001c9919062000824565b63042c1d80620001da919062000875565b6200022860201b60201c565b620001f66200021f60201b60201c565b600a62000204919062000824565b8162000211919062000875565b600681905550505062000de7565b60006012905090565b62000238620002b960201b60201c565b816200024e620002c360201b620004561760201c565b6200025a919062000c9a565b11156200029e576040517f08c379a0000000000000000000000000000000000000000000000000000000008152600401620002959062000d25565b60405180910390fd5b620002b58282620002cd60201b620008cf1760201c565b5050565b6000608051905090565b6000600254905090565b620002dd620002b960201b60201c565b81620002f3620002c360201b620004561760201c565b620002ff919062000c9a565b111562000343576040517f08c379a00000000000000000000000000000000000000000000000000000000081526004016200033a9062000d25565b60405180910390fd5b6200035a82826200035e60201b620009391760201c565b5050565b600073ffffffffffffffffffffffffffffffffffffffff168273ffffffffffffffffffffffffffffffffffffffff1603620003d0576040517f08c379a0000000000000000000000000000000000000000000000000000000008152600401620003c79062000d97565b60405180910390fd5b620003e460008383620004d660201b60201c565b8060026000828254620003f8919062000c9a565b92505081905550806000808473ffffffffffffffffffffffffffffffffffffffff1673ffffffffffffffffffffffffffffffffffffffff16815260200190815260200160002060008282546200044f919062000c9a565b925050819055508173ffffffffffffffffffffffffffffffffffffffff16600073ffffffffffffffffffffffffffffffffffffffff167fddf252ad1be2c89b69c2b068fc378daa952ba7f163c4a11628f55a4df523b3ef83604051620004b6919062000dca565b60405180910390a3620004d260008383620005ed60201b60201c565b5050565b600073ffffffffffffffffffffffffffffffffffffffff168373ffffffffffffffffffffffffffffffffffffffff16141580156200054057504173ffffffffffffffffffffffffffffffffffffffff168273ffffffffffffffffffffffffffffffffffffffff1614155b80156200057a5750600073ffffffffffffffffffffffffffffffffffffffff164173ffffffffffffffffffffffffffffffffffffffff1614155b8015620005b9575062000592620002b960201b60201c565b600654620005aa620002c360201b620004561760201c565b620005b6919062000c9a565b11155b15620005d057620005cf620005f260201b60201c565b5b620005e88383836200060860201b62000a981760201c565b505050565b505050565b62000606416006546200022860201b60201c565b565b505050565b600080fd5b6000819050919050565b620006278162000612565b81146200063357600080fd5b50565b60008151905062000647816200061c565b92915050565b600080604083850312156200066757620006666200060d565b5b6000620006778582860162000636565b92505060206200068a8582860162000636565b9150509250929050565b7f4e487b7100000000000000000000000000000000000000000000000000000000600052601160045260246000fd5b60008160011c9050919050565b6000808291508390505b60018511156200072257808604811115620006fa57620006f962000694565b5b60018516156200070a5780820291505b80810290506200071a85620006c3565b9450620006da565b94509492505050565b6000826200073d576001905062000810565b816200074d576000905062000810565b81600181146200076657600281146200077157620007a7565b600191505062000810565b60ff84111562000786576200078562000694565b5b8360020a915084821115620007a0576200079f62000694565b5b5062000810565b5060208310610133831016604e8410600b8410161715620007e15782820a905083811115620007db57620007da62000694565b5b62000810565b620007f08484846001620006d0565b925090508184048111156200080a576200080962000694565b5b81810290505b9392505050565b600060ff82169050919050565b6000620008318262000612565b91506200083e8362000817565b92506200086d7fffffffffffffffffffffffffffffffffffffffffffffffffffffffffffffffff84846200072b565b905092915050565b6000620008828262000612565b91506200088f8362000612565b92508282026200089f8162000612565b91508282048414831517620008b957620008b862000694565b5b5092915050565b600081519050919050565b7f4e487b7100000000000000000000000000000000000000000000000000000000600052604160045260246000fd5b7f4e487b7100000000000000000000000000000000000000000000000000000000600052602260045260246000fd5b600060028204905060018216806200094257607f821691505b602082108103620009585762000957620008fa565b5b50919050565b60008190508160005260206000209050919050565b60006020601f8301049050919050565b600082821b905092915050565b600060088302620009c27fffffffffffffffffffffffffffffffffffffffffffffffffffffffffffffffff8262000983565b620009ce868362000983565b95508019841693508086168417925050509392505050565b6000819050919050565b600062000a1162000a0b62000a058462000612565b620009e6565b62000612565b9050919050565b6000819050919050565b62000a2d83620009f0565b62000a4562000a3c8262000a18565b84845462000990565b825550505050565b600090565b62000a5c62000a4d565b62000a6981848462000a22565b505050565b5b8181101562000a915762000a8560008262000a52565b60018101905062000a6f565b5050565b601f82111562000ae05762000aaa816200095e565b62000ab58462000973565b8101602085101562000ac5578190505b62000add62000ad48562000973565b83018262000a6e565b50505b505050565b600082821c905092915050565b600062000b056000198460080262000ae5565b1980831691505092915050565b600062000b20838362000af2565b9150826002028217905092915050565b62000b3b82620008c0565b67ffffffffffffffff81111562000b575762000b56620008cb565b5b62000b63825462000929565b62000b7082828562000a95565b600060209050601f83116001811462000ba8576000841562000b93578287015190505b62000b9f858262000b12565b86555062000c0f565b601f19841662000bb8866200095e565b60005b8281101562000be25784890151825560018201915060208501945060208101905062000bbb565b8683101562000c02578489015162000bfe601f89168262000af2565b8355505b6001600288020188555050505b505050505050565b600082825260208201905092915050565b7f45524332304361707065643a2063617020697320300000000000000000000000600082015250565b600062000c6060158362000c17565b915062000c6d8262000c28565b602082019050919050565b6000602082019050818103600083015262000c938162000c51565b9050919050565b600062000ca78262000612565b915062000cb48362000612565b925082820190508082111562000ccf5762000cce62000694565b5b92915050565b7f45524332304361707065643a2063617020657863656564656400000000000000600082015250565b600062000d0d60198362000c17565b915062000d1a8262000cd5565b602082019050919050565b6000602082019050818103600083015262000d408162000cfe565b9050919050565b7f45524332303a206d696e7420746f20746865207a65726f206164647265737300600082015250565b600062000d7f601f8362000c17565b915062000d8c8262000d47565b602082019050919050565b6000602082019050818103600083015262000db28162000d70565b9050919050565b62000dc48162000612565b82525050565b600060208201905062000de1600083018462000db9565b92915050565b608051611f5162000e0360003960006105540152611f516000f3fe608060405234801561001057600080fd5b50600436106101165760003560e01c806342966c68116100a25780638da5cb5b116100715780638da5cb5b146102cf57806395d89b41146102ed578063a457c2d71461030b578063a9059cbb1461033b578063dd62ed3e1461036b57610116565b806342966c681461025d57806370a082311461027957806379cc6790146102a957806383197ef0146102c557610116565b80631a18e707116100e95780631a18e707146101a557806323b872dd146101c1578063313ce567146101f1578063355274ea1461020f578063395093511461022d57610116565b806306fdde031461011b578063095ea7b3146101395780630ac168a11461016957806318160ddd14610187575b600080fd5b61012361039b565b6040516101309190611343565b60405180910390f35b610153600480360381019061014e91906113fe565b61042d565b6040516101609190611459565b60405180910390f35b610171610450565b60405161017e9190611483565b60405180910390f35b61018f610456565b60405161019c9190611483565b60405180910390f35b6101bf60048036038101906101ba919061149e565b610460565b005b6101db60048036038101906101d691906114cb565b610518565b6040516101e89190611459565b60405180910390f35b6101f9610547565b604051610206919061153a565b60405180910390f35b610217610550565b6040516102249190611483565b60405180910390f35b610247600480360381019061024291906113fe565b610578565b6040516102549190611459565b60405180910390f35b6102776004803603810190610272919061149e565b6105af565b005b610293600480360381019061028e9190611555565b6105c3565b6040516102a09190611483565b60405180910390f35b6102c360048036038101906102be91906113fe565b61060b565b005b6102cd61062b565b005b6102d76106f6565b6040516102e491906115a3565b60405180910390f35b6102f561071c565b6040516103029190611343565b60405180910390f35b610325600480360381019061032091906113fe565b6107ae565b6040516103329190611459565b60405180910390f35b610355600480360381019061035091906113fe565b610825565b6040516103629190611459565b60405180910390f35b610385600480360381019061038091906115be565b610848565b6040516103929190611483565b60405180910390f35b6060600380546103aa9061162d565b80601f01602080910402602001604051908101604052809291908181526020018280546103d69061162d565b80156104235780601f106103f857610100808354040283529160200191610423565b820191906000526020600020905b81548152906001019060200180831161040657829003601f168201915b5050505050905090565b600080610438610a9d565b9050610445818585610aa5565b600191505092915050565b60065481565b6000600254905090565b600560009054906101000a900473ffffffffffffffffffffffffffffffffffffffff1673ffffffffffffffffffffffffffffffffffffffff163373ffffffffffffffffffffffffffffffffffffffff16146104f0576040517f08c379a00000000000000000000000000000000000000000000000000000000081526004016104e7906116d0565b60405180910390fd5b6104f8610547565b600a6105049190611852565b8161050f919061189d565b60068190555050565b600080610523610a9d565b9050610530858285610c6e565b61053b858585610cfa565b60019150509392505050565b60006012905090565b60007f0000000000000000000000000000000000000000000000000000000000000000905090565b600080610583610a9d565b90506105a48185856105958589610848565b61059f91906118df565b610aa5565b600191505092915050565b6105c06105ba610a9d565b82610f79565b50565b60008060008373ffffffffffffffffffffffffffffffffffffffff1673ffffffffffffffffffffffffffffffffffffffff168152602001908152602001600020549050919050565b61061d82610617610a9d565b83610c6e565b6106278282610f79565b5050565b600560009054906101000a900473ffffffffffffffffffffffffffffffffffffffff1673ffffffffffffffffffffffffffffffffffffffff163373ffffffffffffffffffffffffffffffffffffffff16146106bb576040517f08c379a00000000000000000000000000000000000000000000000000000000081526004016106b2906116d0565b60405180910390fd5b600560009054906101000a900473ffffffffffffffffffffffffffffffffffffffff1673ffffffffffffffffffffffffffffffffffffffff16ff5b600560009054906101000a900473ffffffffffffffffffffffffffffffffffffffff1681565b60606004805461072b9061162d565b80601f01602080910402602001604051908101604052809291908181526020018280546107579061162d565b80156107a45780601f10610779576101008083540402835291602001916107a4565b820191906000526020600020905b81548152906001019060200180831161078757829003601f168201915b5050505050905090565b6000806107b9610a9d565b905060006107c78286610848565b90508381101561080c576040517f08c379a000000000000000000000000000000000000000000000000000000000815260040161080390611985565b60405180910390fd5b6108198286868403610aa5565b60019250505092915050565b600080610830610a9d565b905061083d818585610cfa565b600191505092915050565b6000600160008473ffffffffffffffffffffffffffffffffffffffff1673ffffffffffffffffffffffffffffffffffffffff16815260200190815260200160002060008373ffffffffffffffffffffffffffffffffffffffff1673ffffffffffffffffffffffffffffffffffffffff16815260200190815260200160002054905092915050565b6108d7610550565b816108e0610456565b6108ea91906118df565b111561092b576040517f08c379a0000000000000000000000000000000000000000000000000000000008152600401610922906119f1565b60405180910390fd5b6109358282610939565b5050565b600073ffffffffffffffffffffffffffffffffffffffff168273ffffffffffffffffffffffffffffffffffffffff16036109a8576040517f08c379a000000000000000000000000000000000000000000000000000000000815260040161099f90611a5d565b60405180910390fd5b6109b46000838361114f565b80600260008282546109c691906118df565b92505081905550806000808473ffffffffffffffffffffffffffffffffffffffff1673ffffffffffffffffffffffffffffffffffffffff1681526020019081526020016000206000828254610a1b91906118df565b925050819055508173ffffffffffffffffffffffffffffffffffffffff16600073ffffffffffffffffffffffffffffffffffffffff167fddf252ad1be2c89b69c2b068fc378daa952ba7f163c4a11628f55a4df523b3ef83604051610a809190611483565b60405180910390a3610a9460008383611236565b5050565b505050565b600033905090565b600073ffffffffffffffffffffffffffffffffffffffff168373ffffffffffffffffffffffffffffffffffffffff1603610b14576040517f08c379a0000000000000000000000000000000000000000000000000000000008152600401610b0b90611aef565b60405180910390fd5b600073ffffffffffffffffffffffffffffffffffffffff168273ffffffffffffffffffffffffffffffffffffffff1603610b83576040517f08c379a0000000000000000000000000000000000000000000000000000000008152600401610b7a90611b81565b60405180910390fd5b80600160008573ffffffffffffffffffffffffffffffffffffffff1673ffffffffffffffffffffffffffffffffffffffff16815260200190815260200160002060008473ffffffffffffffffffffffffffffffffffffffff1673ffffffffffffffffffffffffffffffffffffffff168152602001908152602001600020819055508173ffffffffffffffffffffffffffffffffffffffff168373ffffffffffffffffffffffffffffffffffffffff167f8c5be1e5ebec7d5bd14f71427d1e84f3dd0314c0f7b2291e5b200ac8c7c3b92583604051610c619190611483565b60405180910390a3505050565b6000610c7a8484610848565b90507fffffffffffffffffffffffffffffffffffffffffffffffffffffffffffffffff8114610cf45781811015610ce6576040517f08c379a0000000000000000000000000000000000000000000000000000000008152600401610cdd90611bed565b60405180910390fd5b610cf38484848403610aa5565b5b50505050565b600073ffffffffffffffffffffffffffffffffffffffff168373ffffffffffffffffffffffffffffffffffffffff1603610d69576040517f08c379a0000000000000000000000000000000000000000000000000000000008152600401610d6090611c7f565b60405180910390fd5b600073ffffffffffffffffffffffffffffffffffffffff168273ffffffffffffffffffffffffffffffffffffffff1603610dd8576040517f08c379a0000000000000000000000000000000000000000000000000000000008152600401610dcf90611d11565b60405180910390fd5b610de383838361114f565b60008060008573ffffffffffffffffffffffffffffffffffffffff1673ffffffffffffffffffffffffffffffffffffffff16815260200190815260200160002054905081811015610e69576040517f08c379a0000000000000000000000000000000000000000000000000000000008152600401610e6090611da3565b60405180910390fd5b8181036000808673ffffffffffffffffffffffffffffffffffffffff1673ffffffffffffffffffffffffffffffffffffffff16815260200190815260200160002081905550816000808573ffffffffffffffffffffffffffffffffffffffff1673ffffffffffffffffffffffffffffffffffffffff1681526020019081526020016000206000828254610efc91906118df565b925050819055508273ffffffffffffffffffffffffffffffffffffffff168473ffffffffffffffffffffffffffffffffffffffff167fddf252ad1be2c89b69c2b068fc378daa952ba7f163c4a11628f55a4df523b3ef84604051610f609190611483565b60405180910390a3610f73848484611236565b50505050565b600073ffffffffffffffffffffffffffffffffffffffff168273ffffffffffffffffffffffffffffffffffffffff1603610fe8576040517f08c379a0000000000000000000000000000000000000000000000000000000008152600401610fdf90611e35565b60405180910390fd5b610ff48260008361114f565b60008060008473ffffffffffffffffffffffffffffffffffffffff1673ffffffffffffffffffffffffffffffffffffffff1681526020019081526020016000205490508181101561107a576040517f08c379a000000000000000000000000000000000000000000000000000000000815260040161107190611ec7565b60405180910390fd5b8181036000808573ffffffffffffffffffffffffffffffffffffffff1673ffffffffffffffffffffffffffffffffffffffff1681526020019081526020016000208190555081600260008282546110d19190611ee7565b92505081905550600073ffffffffffffffffffffffffffffffffffffffff168373ffffffffffffffffffffffffffffffffffffffff167fddf252ad1be2c89b69c2b068fc378daa952ba7f163c4a11628f55a4df523b3ef846040516111369190611483565b60405180910390a361114a83600084611236565b505050565b600073ffffffffffffffffffffffffffffffffffffffff168373ffffffffffffffffffffffffffffffffffffffff16141580156111b857504173ffffffffffffffffffffffffffffffffffffffff168273ffffffffffffffffffffffffffffffffffffffff1614155b80156111f15750600073ffffffffffffffffffffffffffffffffffffffff164173ffffffffffffffffffffffffffffffffffffffff1614155b80156112185750611200610550565b60065461120b610456565b61121591906118df565b11155b156112265761122561123b565b5b611231838383610a98565b505050565b505050565b61124741600654611249565b565b611251610550565b8161125a610456565b61126491906118df565b11156112a5576040517f08c379a000000000000000000000000000000000000000000000000000000000815260040161129c906119f1565b60405180910390fd5b6112af82826108cf565b5050565b600081519050919050565b600082825260208201905092915050565b60005b838110156112ed5780820151818401526020810190506112d2565b60008484015250505050565b6000601f19601f8301169050919050565b6000611315826112b3565b61131f81856112be565b935061132f8185602086016112cf565b611338816112f9565b840191505092915050565b6000602082019050818103600083015261135d818461130a565b905092915050565b600080fd5b600073ffffffffffffffffffffffffffffffffffffffff82169050919050565b60006113958261136a565b9050919050565b6113a58161138a565b81146113b057600080fd5b50565b6000813590506113c28161139c565b92915050565b6000819050919050565b6113db816113c8565b81146113e657600080fd5b50565b6000813590506113f8816113d2565b92915050565b6000806040838503121561141557611414611365565b5b6000611423858286016113b3565b9250506020611434858286016113e9565b9150509250929050565b60008115159050919050565b6114538161143e565b82525050565b600060208201905061146e600083018461144a565b92915050565b61147d816113c8565b82525050565b60006020820190506114986000830184611474565b92915050565b6000602082840312156114b4576114b3611365565b5b60006114c2848285016113e9565b91505092915050565b6000806000606084860312156114e4576114e3611365565b5b60006114f2868287016113b3565b9350506020611503868287016113b3565b9250506040611514868287016113e9565b9150509250925092565b600060ff82169050919050565b6115348161151e565b82525050565b600060208201905061154f600083018461152b565b92915050565b60006020828403121561156b5761156a611365565b5b6000611579848285016113b3565b91505092915050565b600061158d8261136a565b9050919050565b61159d81611582565b82525050565b60006020820190506115b86000830184611594565b92915050565b600080604083850312156115d5576115d4611365565b5b60006115e3858286016113b3565b92505060206115f4858286016113b3565b9150509250929050565b7f4e487b7100000000000000000000000000000000000000000000000000000000600052602260045260246000fd5b6000600282049050600182168061164557607f821691505b602082108103611658576116576115fe565b5b50919050565b7f4f6e6c7920746865206f776e65722063616e2063616c6c20746869732066756e60008201527f6374696f6e000000000000000000000000000000000000000000000000000000602082015250565b60006116ba6025836112be565b91506116c58261165e565b604082019050919050565b600060208201905081810360008301526116e9816116ad565b9050919050565b7f4e487b7100000000000000000000000000000000000000000000000000000000600052601160045260246000fd5b60008160011c9050919050565b6000808291508390505b600185111561177657808604811115611752576117516116f0565b5b60018516156117615780820291505b808102905061176f8561171f565b9450611736565b94509492505050565b60008261178f576001905061184b565b8161179d576000905061184b565b81600181146117b357600281146117bd576117ec565b600191505061184b565b60ff8411156117cf576117ce6116f0565b5b8360020a9150848211156117e6576117e56116f0565b5b5061184b565b5060208310610133831016604e8410600b84101617156118215782820a90508381111561181c5761181b6116f0565b5b61184b565b61182e848484600161172c565b92509050818404811115611845576118446116f0565b5b81810290505b9392505050565b600061185d826113c8565b91506118688361151e565b92506118957fffffffffffffffffffffffffffffffffffffffffffffffffffffffffffffffff848461177f565b905092915050565b60006118a8826113c8565b91506118b3836113c8565b92508282026118c1816113c8565b915082820484148315176118d8576118d76116f0565b5b5092915050565b60006118ea826113c8565b91506118f5836113c8565b925082820190508082111561190d5761190c6116f0565b5b92915050565b7f45524332303a2064656372656173656420616c6c6f77616e63652062656c6f7760008201527f207a65726f000000000000000000000000000000000000000000000000000000602082015250565b600061196f6025836112be565b915061197a82611913565b604082019050919050565b6000602082019050818103600083015261199e81611962565b9050919050565b7f45524332304361707065643a2063617020657863656564656400000000000000600082015250565b60006119db6019836112be565b91506119e6826119a5565b602082019050919050565b60006020820190508181036000830152611a0a816119ce565b9050919050565b7f45524332303a206d696e7420746f20746865207a65726f206164647265737300600082015250565b6000611a47601f836112be565b9150611a5282611a11565b602082019050919050565b60006020820190508181036000830152611a7681611a3a565b9050919050565b7f45524332303a20617070726f76652066726f6d20746865207a65726f2061646460008201527f7265737300000000000000000000000000000000000000000000000000000000602082015250565b6000611ad96024836112be565b9150611ae482611a7d565b604082019050919050565b60006020820190508181036000830152611b0881611acc565b9050919050565b7f45524332303a20617070726f766520746f20746865207a65726f20616464726560008201527f7373000000000000000000000000000000000000000000000000000000000000602082015250565b6000611b6b6022836112be565b9150611b7682611b0f565b604082019050919050565b60006020820190508181036000830152611b9a81611b5e565b9050919050565b7f45524332303a20696e73756666696369656e7420616c6c6f77616e6365000000600082015250565b6000611bd7601d836112be565b9150611be282611ba1565b602082019050919050565b60006020820190508181036000830152611c0681611bca565b9050919050565b7f45524332303a207472616e736665722066726f6d20746865207a65726f20616460008201527f6472657373000000000000000000000000000000000000000000000000000000602082015250565b6000611c696025836112be565b9150611c7482611c0d565b604082019050919050565b60006020820190508181036000830152611c9881611c5c565b9050919050565b7f45524332303a207472616e7366657220746f20746865207a65726f206164647260008201527f6573730000000000000000000000000000000000000000000000000000000000602082015250565b6000611cfb6023836112be565b9150611d0682611c9f565b604082019050919050565b60006020820190508181036000830152611d2a81611cee565b9050919050565b7f45524332303a207472616e7366657220616d6f756e742065786365656473206260008201527f616c616e63650000000000000000000000000000000000000000000000000000602082015250565b6000611d8d6026836112be565b9150611d9882611d31565b604082019050919050565b60006020820190508181036000830152611dbc81611d80565b9050919050565b7f45524332303a206275726e2066726f6d20746865207a65726f2061646472657360008201527f7300000000000000000000000000000000000000000000000000000000000000602082015250565b6000611e1f6021836112be565b9150611e2a82611dc3565b604082019050919050565b60006020820190508181036000830152611e4e81611e12565b9050919050565b7f45524332303a206275726e20616d6f756e7420657863656564732062616c616e60008201527f6365000000000000000000000000000000000000000000000000000000000000602082015250565b6000611eb16022836112be565b9150611ebc82611e55565b604082019050919050565b60006020820190508181036000830152611ee081611ea4565b9050919050565b6000611ef2826113c8565b9150611efd836113c8565b9250828203905081811115611f1557611f146116f0565b5b9291505056fea264697066735822122066bf57098481b8296715b0d4317bca596490a326072ea1b4007c63efa8f5124864736f6c63430008110033",
  "linkReferences": {},
  "deployedLinkReferences": {}
}